{
  "transactions": [
    {
      "hash": "0xe36576e1395a2bf7de42ad862dc501456e563b7027eaaad3840d4b2be0d3e0eb",
      "transactionType": "CALL",
      "contractName": null,
      "contractAddress": "0x4895cdb90360de208b5f301515ca235f3e99c5e1",
      "function": "flip(bool)",
      "arguments": [
        "true"
      ],
      "transaction": {
        "from": "0xb3650a602767b3312bc542019f572c3a0f407ab5",
        "to": "0x4895cdb90360de208b5f301515ca235f3e99c5e1",
        "gas": "0x123d1",
        "value": "0x0",
        "input": "0x1d263f670000000000000000000000000000000000000000000000000000000000000001",
        "nonce": "0x2f",
        "chainId": "0xaa36a7"
      },
      "additionalContracts": [],
      "isFixedGasLimit": false
    }
  ],
  "receipts": [
    {
      "status": "0x1",
      "cumulativeGasUsed": "0x38b5c9f",
      "logs": [],
      "logsBloom": "0x00000000000000000000000000000000000000000000000000000000000000000000000000000000000000000000000000000000000000000000000000000000000000000000000000000000000000000000000000000000000000000000000000000000000000000000000000000000000000000000000000000000000000000000000000000000000000000000000000000000000000000000000000000000000000000000000000000000000000000000000000000000000000000000000000000000000000000000000000000000000000000000000000000000000000000000000000000000000000000000000000000000000000000000000000000000",
      "type": "0x2",
      "transactionHash": "0xe36576e1395a2bf7de42ad862dc501456e563b7027eaaad3840d4b2be0d3e0eb",
      "transactionIndex": "0x32",
      "blockHash": "0x10840220bfcdfb60aaac45c1676137f517ff0fefa2c2bb5d46f328aa3ae42868",
      "blockNumber": "0x9a7f09",
      "gasUsed": "0x7982",
      "effectiveGasPrice": "0x36dceebb",
      "from": "0xb3650a602767b3312bc542019f572c3a0f407ab5",
      "to": "0x4895cdb90360de208b5f301515ca235f3e99c5e1",
      "contractAddress": null
    }
  ],
  "libraries": [],
  "pending": [],
  "returns": {
    "0": {
      "internal_type": "contract CoinFlip",
      "value": "0x4895cdB90360De208B5f301515CA235f3e99C5e1"
    }
  },
  "timestamp": 1769400864938,
  "chain": 11155111,
  "commit": "374ff25"
}