{
  "transactions": [
    {
      "hash": "0xbbc0b1b3a21c1f65e30b6ca681a61ab650b968300f6e0ba8ea757d68448ddbc6",
      "transactionType": "CALL",
      "contractName": null,
      "contractAddress": "0x4895cdb90360de208b5f301515ca235f3e99c5e1",
      "function": "flip(bool)",
      "arguments": [
        "true"
      ],
      "transaction": {
        "from": "0xb3650a602767b3312bc542019f572c3a0f407ab5",
        "to": "0x4895cdb90360de208b5f301515ca235f3e99c5e1",
        "gas": "0x123d1",
        "value": "0x0",
        "input": "0x1d263f670000000000000000000000000000000000000000000000000000000000000001",
        "nonce": "0x26",
        "chainId": "0xaa36a7"
      },
      "additionalContracts": [],
      "isFixedGasLimit": false
    }
  ],
  "receipts": [
    {
      "status": "0x1",
      "cumulativeGasUsed": "0x44ce33",
      "logs": [],
      "logsBloom": "0x00000000000000000000000000000000000000000000000000000000000000000000000000000000000000000000000000000000000000000000000000000000000000000000000000000000000000000000000000000000000000000000000000000000000000000000000000000000000000000000000000000000000000000000000000000000000000000000000000000000000000000000000000000000000000000000000000000000000000000000000000000000000000000000000000000000000000000000000000000000000000000000000000000000000000000000000000000000000000000000000000000000000000000000000000000000",
      "type": "0x2",
      "transactionHash": "0xbbc0b1b3a21c1f65e30b6ca681a61ab650b968300f6e0ba8ea757d68448ddbc6",
      "transactionIndex": "0x1e",
      "blockHash": "0x6c295e12f6136276e5538cb703f73b5e9740b2dd70fbc743ae1ef3cbc1440db0",
      "blockNumber": "0x9a7e63",
      "gasUsed": "0x7982",
      "effectiveGasPrice": "0x3c7352e9",
      "from": "0xb3650a602767b3312bc542019f572c3a0f407ab5",
      "to": "0x4895cdb90360de208b5f301515ca235f3e99c5e1",
      "contractAddress": null
    }
  ],
  "libraries": [],
  "pending": [],
  "returns": {
    "0": {
      "internal_type": "contract CoinFlip",
      "value": "0x4895cdB90360De208B5f301515CA235f3e99C5e1"
    }
  },
  "timestamp": 1769398873567,
  "chain": 11155111,
  "commit": "374ff25"
}