{
  "transactions": [
    {
      "hash": "0x279586158c249480d63ca2526e5c2cb87e6a3f761cc4845bb1690b19da3551a6",
      "transactionType": "CALL",
      "contractName": null,
      "contractAddress": "0x4895cdb90360de208b5f301515ca235f3e99c5e1",
      "function": "flip(bool)",
      "arguments": [
        "true"
      ],
      "transaction": {
        "from": "0xb3650a602767b3312bc542019f572c3a0f407ab5",
        "to": "0x4895cdb90360de208b5f301515ca235f3e99c5e1",
        "gas": "0xb757",
        "value": "0x0",
        "input": "0x1d263f670000000000000000000000000000000000000000000000000000000000000001",
        "nonce": "0x2c",
        "chainId": "0xaa36a7"
      },
      "additionalContracts": [],
      "isFixedGasLimit": false
    }
  ],
  "receipts": [
    {
      "status": "0x1",
      "cumulativeGasUsed": "0x6f3e10",
      "logs": [],
      "logsBloom": "0x00000000000000000000000000000000000000000000000000000000000000000000000000000000000000000000000000000000000000000000000000000000000000000000000000000000000000000000000000000000000000000000000000000000000000000000000000000000000000000000000000000000000000000000000000000000000000000000000000000000000000000000000000000000000000000000000000000000000000000000000000000000000000000000000000000000000000000000000000000000000000000000000000000000000000000000000000000000000000000000000000000000000000000000000000000000",
      "type": "0x2",
      "transactionHash": "0x279586158c249480d63ca2526e5c2cb87e6a3f761cc4845bb1690b19da3551a6",
      "transactionIndex": "0x24",
      "blockHash": "0xca5146c77918dc6b72d85a1c50485db418773d1d3cad64d5a33e08a48558bade",
      "blockNumber": "0x9a7ef9",
      "gasUsed": "0x71b2",
      "effectiveGasPrice": "0x41c6d8cb",
      "from": "0xb3650a602767b3312bc542019f572c3a0f407ab5",
      "to": "0x4895cdb90360de208b5f301515ca235f3e99c5e1",
      "contractAddress": null
    }
  ],
  "libraries": [],
  "pending": [],
  "returns": {
    "0": {
      "internal_type": "contract CoinFlip",
      "value": "0x4895cdB90360De208B5f301515CA235f3e99C5e1"
    }
  },
  "timestamp": 1769400673492,
  "chain": 11155111,
  "commit": "374ff25"
}