{
  "transactions": [
    {
      "hash": "0x0c696124d539b58dc63a6b791bcbc956b8e3ab8841bca63f6c483e5b3963d836",
      "transactionType": "CALL",
      "contractName": null,
      "contractAddress": "0x4895cdb90360de208b5f301515ca235f3e99c5e1",
      "function": "flip(bool)",
      "arguments": [
        "true"
      ],
      "transaction": {
        "from": "0xb3650a602767b3312bc542019f572c3a0f407ab5",
        "to": "0x4895cdb90360de208b5f301515ca235f3e99c5e1",
        "gas": "0xb1b4",
        "value": "0x0",
        "input": "0x1d263f670000000000000000000000000000000000000000000000000000000000000001",
        "nonce": "0x2d",
        "chainId": "0xaa36a7"
      },
      "additionalContracts": [],
      "isFixedGasLimit": false
    }
  ],
  "receipts": [
    {
      "status": "0x1",
      "cumulativeGasUsed": "0x8d4e8d",
      "logs": [],
      "logsBloom": "0x00000000000000000000000000000000000000000000000000000000000000000000000000000000000000000000000000000000000000000000000000000000000000000000000000000000000000000000000000000000000000000000000000000000000000000000000000000000000000000000000000000000000000000000000000000000000000000000000000000000000000000000000000000000000000000000000000000000000000000000000000000000000000000000000000000000000000000000000000000000000000000000000000000000000000000000000000000000000000000000000000000000000000000000000000000000",
      "type": "0x2",
      "transactionHash": "0x0c696124d539b58dc63a6b791bcbc956b8e3ab8841bca63f6c483e5b3963d836",
      "transactionIndex": "0x35",
      "blockHash": "0xdd91ee11734f8f06875283a7c33c59c8bf18adfe52dc28cfe51d0096e99a4ee1",
      "blockNumber": "0x9a7efe",
      "gasUsed": "0x7982",
      "effectiveGasPrice": "0x3f197b60",
      "from": "0xb3650a602767b3312bc542019f572c3a0f407ab5",
      "to": "0x4895cdb90360de208b5f301515ca235f3e99c5e1",
      "contractAddress": null
    }
  ],
  "libraries": [],
  "pending": [],
  "returns": {
    "0": {
      "internal_type": "contract CoinFlip",
      "value": "0x4895cdB90360De208B5f301515CA235f3e99C5e1"
    }
  },
  "timestamp": 1769400733960,
  "chain": 11155111,
  "commit": "374ff25"
}